S02B00002F73747564656E74732F727A3239352F576172702D6669726D776172652F6275696C642F6B73646B02
S1130000000600201D050000450500004505000010
S113001000000000000000000000000000000000DC
S11300200000000000000000000000004505000082
S11300300000000000000000450500004505000028
S11300404505000045050000450500004505000084
S11300504505000045050000450500004505000074
S1130060AB28000045050000B52800004505000048
S11300704505000045050000450500004505000054
S11300804505000045050000450500004505000044
S11300909D0E0000B50E000045050000450500005A
S11300A04505000045050000450500004505000024
S11300B04505000045050000450500004505000014
S1130400FFFFFFFFFFFFFFFFFFFFFFFFFE3DFFFFBB
S11304100448054B10B5834203D0044B002B00D095
S1130420984710BDA8FFFF1FA8FFFF1F0000000092
S113043006480749091A8B10C90FC91810B5491085
S113044003D0044B002B00D0984710BDA8FFFF1F1A
S1130450A8FFFF1F0000000010B5074C2378002BF5
S113046009D1FFF7D5FF054B002B02D0044800E06B
S113047000BF0123237010BDA8FFFF1F0000000070
S113048038600000054B10B5002B03D00449054823
S113049000E000BFFFF7CCFF10BDC0460000000025
S11304A0ACFFFF1F38600000402292029A1A924665
S11304B07047C046154B002B00D1114B9D46FFF7EA
S11304C0F3FF00218B460F461148124A121A00F01E
S11304D0FFF80C4B002B00D098470B4B002B00D09F
S11304E098470020002104000D000B4800F02EF86E
S11304F000F064F82000290001F040F800F034F81E
S113050000000800000000000000000000060020B9
S1130510A8FFFF1FF00200209505000072B60648F0
S11305200649074A02600A6002F0CAF902F00AFAB0
S113053062B6FFF7BFFF000080E100E080E200E068
S1130540FFFFFFFF004800474505000010B501000C
S113055000230022002000F019FA10BD014B186896
S11305607047C04600FEFF1F084B10B50400002B67
S113057002D0002100F078FA054B1868836A002B3A
S113058000D09847200000F05BFCC046690A0000D8
S11305909449000070B5074D074C641BA41005D0A6
S11305A0013CA300EB589847002CF9D105F04AFD13
S11305B070BDC0465C6000006060000070B50C4D0A
S11305C00C4E761BB61005D0002408CD0134984794
S11305D0A642FAD105F030FD074D084E761BB61041
S11305E005D0002408CD01349847A642FAD170BD45
S11305F05860000058600000586000005C60000013
S113060010B5034B0100186800F00CF910BDC0468A
S113061000FEFF1F10B5034B0100186800F0ACF892
S113062010BDC04600FEFF1FF0B5C64600B50F2A38
S113063043D90B00032603431E400C000300002E85
S113064040D11500103D2D09AC462D01A84680442B
S113065000E03B00676825685F60E7681D60DF6055
S11306601F00A56810379D6010344345F1D16546DD
S11306700F230C2401352D01491913404519144247
S113068023D08C59AC5104369C1B032CF9D8032479
S1130690043B9B0801339B002240ED18C918561EE9
S11306A0002A07D0002300E02300CA5C5C1CEA5443
S11306B09E42F9D104BC9046F0BD0500561E002AA6
S11306C0F0D1F7E7561E0500ECE71A00F6E7C0463E
S11306D0F0B5050083074AD0541E002A44D0CEB298
S11306E00300032202E00135013C3DD301332E70A7
S11306F01342F8D1032C2FD9FF220A4015021543C7
S11307002A0415430F2C35D92700103F3F093E0119
S1130710B4461E001A001036664415605560956094
S1130720D5601032B242F8D10F260C2201373F01B6
S11307302640DB193700224217D03E1FB608B4000A
S1130740A4461A001C1D644420C2A242FCD1032406
S11307500136B6009B193C40002C05D0C9B21C19C7
S1130760197001339C42FBD1F0BD3400F4E714004E
S11307700300BFE72700E0E770B50500002915D0A6
S11307800C1F2368002B27DB280000F0CBF9244B37
S11307901A68002A05D0A2420CD921686018824246
S11307A024D0626028001C6000F0BEF970BDA34232
S11307B003D81A005368002BF9D111685018A042CD
S11307C01BD027D821686018834207D06360546027
S11307D0280000F0A9F9E9E7E418D5E718685B6890
S11307E084466144216063605460F1E71068526894
S11307F08446614421606260D4E720680918501877
S113080011608342E4D118685B68844661441160D6
S11308105360DDE70C2328002B6000F085F9C5E761
S1130820C4FFFF1FF8B50323CD1C9D430835060004
S11308300C2D2AD20C25A94229D8300000F072F9D7
S11308402A4F3A68002A0AD013685B1B04D441E09B
S113085023685B1B1FD522005468002CF8D17B68E9
S1130860002B3DD02900300000F042F8431C2AD070
S11308700323C41C9C43A04205D0211A300000F07D
S113088037F8431C1FD0256010E0002DD3DA0C2369
S113089000203360F8BD0B2B05D86368A2421DD03D
S11308A0536003E014002360E4182560300000F076
S11308B03BF9200007220B30231D9043C21AE9D0D4
S11308C01B1AA350E6E70C233000336000F02CF928
S11308D00020DFE70B2BE5D8140053683B60E5E705
S11308E00021300000F004F87860BBE7C4FFFF1F6C
S11308F0002370B5064C05000800236000F0A2FA3E
S1130900431C00D070BD2368002BFBD02B60F9E79B
S1130910EC02002003000A7801311A700133002A26
S1130920F9D1704710B5830727D00378002B26D060
S11309300300032102E01A78002A1CD001330B4281
S1130940F9D119680F4A104C8A188A4322420FD1F0
S1130950043319680B4A8A188A43224208D10433A3
S11309601968084A8A188A432242F1D000E0013308
S11309701A78002AFBD1181A10BD0300E1E7002001
S1130980FAE7C046FFFEFEFE80808080F0B5464652
S11309904F46D646C0B51F002F4B82B01C680500D9
S11309A00E009046002C2DD063681F2B50DC002DC8
S11309B01CD08822A0589146002834D0783282581E
S11309C094469A0091468144424649460A60012170
S11309D0624699400A43944680228A466146520000
S11309E081504946803A8F50022D16D000205A1C5F
S11309F002339B0062601E5102B01CBC90469946B3
S1130A00A246F0BD154C1C60154B002BCCD01B68C6
S1130A1001938823019AE250C6E7554684328158EF
S1130A200D438550E2E70F4B002B11D0842040008A
S1130A30FFF7E6FD00280BD08022002352008350EC
S1130A40043283504B460022E05094466368B8E772
S1130A5001204042D0E7C04658000020CCFFFF1FD1
S1130A600000000001060000F0B5DE464E46454693
S1130A7057462B4B88469B46E0B51E6883B00190D1
S1130A80002E45D088237568F7586C1E40D4013574
S1130A90AD00783375199A460AE0002F05D03B0063
S1130AA0A20080339B58434505D0043D013C2FD31D
S1130AB04346002BF1D173682A68013BA34222D03C
S1130AC000232B60002AF0D073689946002F18D0B9
S1130AD001235146A3407958194212D08220400084
S1130AE03858A1007958009018420ED101989047C7
S1130AF05B4672681B684A4501D1B342D5D01E00DB
S1130B00BEE79047F4E77460DCE708009047EFE73E
S1130B1003B03CBC90469946A246AB46F0BDC046E5
S1130B20580000207047C0467047C04602B4714662
S1130B3049084900095C49008E4402BC7047C0461C
S1130B4003B47146490840004900095E49008E44D7
S1130B5003BC7047002243088B4274D303098B42C1
S1130B605FD3030A8B4244D3030B8B4228D3030C79
S1130B708B420DD3FF22090212BA030C8B4202D31B
S1130B801212090265D0030B8B4219D300E0090A43
S1130B90C30B8B4201D3CB03C01A5241830B8B424C
S1130BA001D38B03C01A5241430B8B4201D34B0335
S1130BB0C01A5241030B8B4201D30B03C01A52419A
S1130BC0C30A8B4201D3CB02C01A5241830A8B421F
S1130BD001D38B02C01A5241430A8B4201D34B0208
S1130BE0C01A5241030A8B4201D30B02C01A52416C
S1130BF0CDD2C3098B4201D3CB01C01A5241830920
S1130C008B4201D38B01C01A524143098B4201D359
S1130C104B01C01A524103098B4201D30B01C01A84
S1130C205241C3088B4201D3CB00C01A52418308FE
S1130C308B4201D38B00C01A524143088B4201D32B
S1130C404B00C01A5241411A00D20146524110468B
S1130C507047FFE701B5002000F0F0F802BDC04680
S1130C600029F7D076E7704703460B437FD4002270
S1130C7043088B4274D303098B425FD3030A8B422C
S1130C8044D3030B8B4228D3030C8B420DD3FF2296
S1130C90090212BA030C8B4202D31212090265D064
S1130CA0030B8B4219D300E0090AC30B8B4201D317
S1130CB0CB03C01A5241830B8B4201D38B03C01A5E
S1130CC05241430B8B4201D34B03C01A5241030BD5
S1130CD08B4201D30B03C01A5241C30A8B4201D386
S1130CE0CB02C01A5241830A8B4201D38B02C01A31
S1130CF05241430A8B4201D34B02C01A5241030AA8
S1130D008B4201D30B02C01A5241CDD2C3098B428C
S1130D1001D3CB01C01A524183098B4201D38B0109
S1130D20C01A524143098B4201D34B01C01A5241AC
S1130D3003098B4201D30B01C01A5241C3088B42F1
S1130D4001D3CB00C01A524183088B4201D38B00DC
S1130D50C01A524143088B4201D34B00C01A52417E
S1130D60411A00D201465241104670475DE0CA0F55
S1130D7000D04942031000D34042534000229C4615
S1130D8003098B422DD3030A8B4212D3FC2289011F
S1130D9012BA030A8B420CD3890192118B4208D3F5
S1130DA0890192118B4204D389013AD0921100E057
S1130DB08909C3098B4201D3CB01C01A524183096B
S1130DC08B4201D38B01C01A524143098B4201D398
S1130DD04B01C01A524103098B4201D30B01C01AC3
S1130DE05241C3088B4201D3CB00C01A524183083D
S1130DF08B4201D38B00C01A5241D9D243088B4293
S1130E0001D34B00C01A5241411A00D20146634635
S1130E1052415B10104601D34042002B00D5494299
S1130E20704763465B1000D3404201B5002000F0D8
S1130E3005F802BD0029F8D016E770477047C04690
S1130E40FEE7C0460A4A0300116810B5002901D123
S1130E500849116010680849C3188B4206D9FFF786
S1130E607DFB0C2303600120404210BD1360FCE7AE
S1130E705C000020F0020020F002002083780220B1
S1130E809842804140427047437A0020013B012B45
S1130E9003D90B78013001330B70704710B5002073
S1130EA003F0BEF9002803D00021080003F0ACF9D8
S1130EB010BD0000024A1368013313607047C04636
S1130EC07000002037B5002002F0AEF8C0230024E3
S1130ED00D4A9B0013600D4A0D4D13600D4A20000E
S1130EE013600D4B2C716C71AC711A68FA239B0062
S1130EF053430A492B6003F0E1F92900200001AAB9
S1130F0003F042FA37BDC046189014541C90145490
S1130F10C800002000A0145484FEFF1F9800002085
S1130F2010B58024002003F00BFA0A4B64001C6007
S1130F30094B07201C60094B1C6002F00FFB0620C4
S1130F4002F00CFB200002F009FB002002F071F813
S1130F5010BDC046189014541C90145400A014548E
S1130F6010B5002002F06AF88023054A9B00136044
S1130F70044A00200449136002F0CCFB10BDC046B3
S1130F800CA0145410A014547400002010B50020B8
S1130F9002F0FCFB80238220074A5B001360074AAF
S1130FA04000136002F0DAFA0420FF3002F0D6FAAF
S1130FB0002002F048F810BD0CA0145410A01454E2
S1130FC00023364A70B51360354A01201360354A50
S1130FD00133FF331360344A34491360344A1360D5
S1130FE0344A1360344A1360344A1360344A136039
S1130FF0344A14782500054004424DD00B60324930
S113100032480B60002101603148016031490B60B6
S113101031490B6031490B6031490B6031490B6038
S113102031490B601378DB0703D50220FF3002F04F
S113103087FA092002F092FA0C2002F08FFA0520B8
S113104002F08CFA082002F089FA0620FF3002F040
S113105085FA0E20FF3002F081FA8320400002F06E
S11310607DFA0820FF3002F079FA0C20FF3002F0FC
S113107067FA8220400002F071FA0420FF3002F087
S11310806DFA072002F06AFA062002F067FA80205F
S1131090400002F063FA70BD0D60B0E70C90145488
S11310A010901454149014541890145404A014540C
S11310B01C901454209014542490145430901454BC
S11310C000A0145480FEFF1F08A014540CA0145454
S11310D010A0145414A0145418A014541CA0145494
S11310E028A014542CA0145434A0145410B509206E
S11310F002F034FA10BD10B50C2002F02FFA10BD26
S1131100384B10B598423DD027D8374B984253D02E
S113111015D8C83B984244D009D8C83B984231D02E
S1131120324B984206D1052002F00AFA2DE0304BEA
S113113098423DD02F49002001F0ABFB2CE09623D0
S11311401B01984243D02C4B984247D02B4B9842DA
S1131150F0D1052002F0F4F931E0294B98422BD06C
S113116007D8C83B98421CD0264B984220D0264B27
S1131170D7E7C8231B01984229D0244B98422DD08D
S1131180234BE4E7052002F0E9F9082002F0E6F930
S11311900620FF3002F0E2F91E4B186801F08BFDC7
S11311A010BD052002F0DAF9082002F0C9F9EFE7D2
S11311B0052002F0C5F9F7E7052002F0CFF9082071
S11311C002F0CCF90620FF3002F0BAF9E4E705207A
S11311D002F0C4F9082002F0B3F9F3E7052002F0A5
S11311E0AFF9F7E7280A0000980800006C07000030
S11311F03408000098490000C4090000FC080000FD
S1131200B80B0000540B00008C0A0000E40C000032
S11312101C0C000088FEFF1F10B5FFF771FF0920AA
S113122002F08EF90C2002F099F98320400002F0BC
S113123095F910BD10B5FFF763FF092002F08EF990
S11312400C2002F07DF98320400002F079F910BDF2
S1131250AF220C4B10B5C3189BB29200934202D834
S1131260FFF7DAFF10BD084BC3189BB2934202D8B4
S1131270FFF7E0FFF6E702000449002001F009FB54
S1131280F0E7C046F8F8FFFFD8F5FFFFC5490000B6
S113129010B5FFF72BFFFFF72EFF8320400002F06D
S11312A04FF9024B186801F006FD10BD88FEFF1FC0
S11312B010B50400002901D0FFF782FE00210220AE
S11312C000F0E0FE2100042000F0DCFE10BD10B5AB
S11312D0012420000021FFF7EBFF21003C20FFF751
S11312E0E7FFF6E7F7B500906420019101F0E3FC15
S11312F080210520890100F04BFFA021002500205A
S1131300FA24FF3100F044FF2E002F00A4008021B6
S11313100520890100F03CFF0221042000F058FF61
S1131320C0B2002826D1009B19491A7A5B7A1202AE
S11313301A4301F0AEFA0A20013701F0BCFC019B0C
S1131340002B02DD180001F0B6FC013C002CDED1BC
S1131350BB193A000F49200001F09BFA322001F03A
S1131360AAFC2A000C49200001F093FA322001F073
S1131370A2FCF7BD022805D10020084901F089FA32
S11313800136DCE70338434258412D18D7E7C046FD
S1131390FD490000094A0000214A0000024A0000F9
S11313A0F7B51500002815D01749002001F05EF8A4
S11313B0164C206801F07FFC1549002001F056F816
S11313C0206801F078FC0020124901F04FF82068F1
S11313D001F071FC002427000F4E10493368726835
S11313E000200092220001F054FA32680020736851
S11313F00B49009701F04DFA002D02DD280001F0A1
S11314005AFC0134E8E7C046364A00007CFEFF1F60
S11314105E4A00005E59000000D00340834A000089
S11314208F4A000003003038092805D91A00613AB0
S1131430052A02D8573B180070471A00413A002089
S1131440052AF9D8373BF6E770B501F02AF804000D
S113145001F027F8FF26050020003040FFF7E2FFE7
S1131460040028003040FFF7DDFF24012018C0B23B
S113147070BD70B501F015F8060001F012F8050012
S113148001F00FF8040001F00CF8FF22FA236421A4
S113149016401540303E14409B00303D4D4373438D
S11314A05A39303C4C435B1910401B19303818181A
S11314B070BD000070B50C00160088B00CAA157839
S11314C006A908800A4A05A805700A4D12682D6805
S11314D04A6004AA1670019300902300002002952C
S11314E002F07CFA002800D0022008B070BDC0468B
S11314F074FEFF1F78FEFF1FF7B56A46CB1DDB089D
S1131500DB00D31A02AF9D460C000500FFF7DAFC9E
S1131510FA2300219B0002AE0193009433002A00B9
S1131520080002F08DFF0400FFF7FAFC002C00D045
S11315300424BD462000F2BD10B50020014900F08E
S113154095FF10BDED4D000010B5094C00202100A1
S113155000F08CFF2100002000F088FF05490020E6
S113156000F084FF0449002000F080FF10BDC04655
S1131570194E0000494E00007A4E0000F0B5B1B09B
S11315801DAC072200212000FFF7A2F8FA4A012728
S1131590249203220DAB27930FAB289311AB2A930C
S11315A015AB2C9317AB2D9319AB2E931BAB13AE2A
S11315B009A900202F9324AB1A71277026910C934C
S11315C029942B9601F028FD380001F025FD802197
S11315D0EA4B0902196001F08DFB002300971A0001
S11315E01900180000F064FFE549002000F03EFFF8
S11315F0C82001F060FBE349002000F037FFC82059
S113160001F059FBE049002000F030FFC82001F050
S113161052FB3B00DD4A0221DD4801F08FFB39001B
S1131620380001F097FB002002F038FD7C210025F2
S1131630D84B2800219304AB5B181D80023104AB06
S11316405B1821A91D70229702F054FD3A0029006D
S113165009A8FFF73DF83A201D9B04A91193A2881D
S11316600A87A27909180A700322063804A90918FE
S11316700A701393A28804A9B280A2790A38B271BD
S1131680052232700D93A28802260A85A2790918D0
S11316900A70242104AA521816700F93A28804A970
S11316A00A86A279083009180A700422063804A9A7
S11316B009180A701593A2881C3004A909180A8015
S11316C0A279801904A909180A700822063804A905
S11316D009180A701793A2880C3004A909180A8003
S11316E0A279801904A909180A700921063804AAE4
S11316F0121811701993A3880C3004AA12181380BD
S1131700A379801904AA121813700A23063804AAAC
S1131710121813705C2204AB9B181D700CAA3B00BA
S113172027A801F0D9FC2900300000F0ABFC9A494D
S11317309A4801F0EBFEFFF743FC0820FF3001F06C
S1131740FFFEC82001F0B7FA0820FF3001F006FFC1
S1131750C82001F0B0FA0820FF3001F0F1FEC820E3
S113176001F0A9FA0820FF3001F0F8FEC82001F0CA
S1131770A2FA0820FF3001F0E3FEC82001F09BFA32
S11317800820FF3001F0EAFE854C4020210000F0E3
S1131790F3FCFFF77DFD01F033F92800FFF7E0FBD0
S11317A029002000FFF79EFD80232F001B020695D1
S11317B005937C49002000F059FE7B4C206801F021
S11317C07AFA7A49002000F051FE206801F073FA99
S11317D03B00069A7649002001F05BF8206801F08E
S11317E06AFA744D744E75492A6805983368096815
S11317F0019000910020724901F04BF8206801F03B
S11318005AFA704B7049714A0020D2584B690968E2
S113181000916F4901F03DF8206801F04CFA6D49E0
S113182000200A784B788979D2B2DBB200916A49F8
S113183001F02FF8206801F03EFA664B67491A7AE6
S11318401B7E0978D2B2DBB200910020644901F01A
S113185020F8206801F02FFA624B63491A785B780C
S11318600969D2B2DBB200910020604901F011F89D
S1131870206801F020FA5E4B54489A7852495D4B37
S1131880D2B2C3584968002000915B4901F001F8C5
S1131890206801F010FA594B59491A6809AB1B78B2
S11318A0002000F0F6FF206801F005FA55490020F9
S11318B000F0DCFD206801F0FEF95349002000F03F
S11318C0D5FD206801F0F7F95049002000F0CEFD65
S11318D0206801F0F0F94E49002000F0C7FD2068AF
S11318E001F0E9F94B49002000F0C0FD206801F047
S11318F0E2F94949002000F0B9FD206801F0DBF964
S11319004649002000F0B2FD206801F0D4F94449B2
S1131910002000F0ABFD206801F0CDF94149002022
S113192000F0A4FD206801F0C6F93F49002000F052
S11319309DFD206801F0BFF903233A003B490020D4
S113194000F0A7FF206801F0B6F93949002000F043
S11319508DFD206801F0AFF93649002000F086FDC6
S1131960206801F0A8F93449002000F07FFD2068C8
S113197001F0A1F962E0C046890E0000E0020020F7
S1131980AC4E0000C74E0000CD4E000064FEFF1FA9
S113199090FFFF1FE0070100A0FEFF1F90FEFF1F46
S11319A060000020D44E00007CFEFF1FF84E0000B3
S11319B02A4F000074FEFF1F84FEFF1F8CFEFF1FD2
S11319C05E4F00003C10000000D003400070044053
S11319D0964F000000400640CC4F000000500640E7
S11319E0FB4F000000E0074000ED00E02B5000003A
S11319F000D0074034100000655000007000002043
S1131A009D500000CB500000D5500000F250000063
S1131A100E5100002A510000475100006E51000091
S1131A208D510000AC510000D7510000FA51000064
S1131A30295200004552000069520000C6490020A6
S1131A4000F014FD206801F036F9C449002000F0CC
S1131A500DFD206801F02FF9C149002000F006FDBA
S1131A60206801F028F9BF49002000F0FFFC20683D
S1131A7001F021F9BC49002000F0F8FC206801F0D5
S1131A801AF9BA49002000F0F1FC206801F013F9BA
S1131A90B749002000F0EAFC206801F00CF9B549D0
S1131AA0002000F0E3FC206801F005F9B2490020B1
S1131AB000F0DCFC206801F0FEF8B049002000F0E2
S1131AC0D5FC206801F0F7F800F0EBFCFF230200DE
S1131AD007901A400A2A00D17DE2100061381928C3
S1131AE000D9A2E0FFF72CF81A00A300B600C60044
S1131AF0D100DB001A0125012D01A201E201E80158
S1131B00E8012B022F023202A10037023A0265FEDD
S1131B104102A100A1004602A1004F029849002001
S1131B2000F0A4FC9749002000F0A0FC206801F01C
S1131B30C2F89549002000F099FC9449002000F077
S1131B4095FC9349002000F091FC206801F0B3F863
S1131B509049002000F08AFC206801F0ACF88E491E
S1131B60002000F083FC206801F0A5F88B490020D8
S1131B7000F07CFC206801F09EF88949002000F008
S1131B8075FC206801F097F88649002000F06EFC8F
S1131B90206801F090F88449002000F067FC206878
S1131BA001F089F88149002000F060FC206801F010
S1131BB082F87F49002000F059FC206801F07BF88E
S1131BC07C49002000F052FC206801F074F87A4946
S1131BD0002000F04BFC206801F06DF877490020EC
S1131BE000F044FC206801F066F87549002000F01C
S1131BF03DFC206801F05FF87249002000F036FCDB
S1131C00206801F058F87049002000F02FFC20688B
S1131C1001F051F86D49002000F028FC206801F023
S1131C204AF800F03EFCFF22024069490EE069498F
S1131C30002000F01BFCFFF71CFC28602A68664BA0
S1131C409A4201D1654B2B602A686549002000F057
S1131C5020FEAEE56349002000F008FCFFF709FC14
S1131C60306032685C4B9A4201D15C4B336032681D
S1131C705D49EBE75D49002000F0F8FBFFF7F9FB55
S1131C805B4B5C4918601A68E0E75B49002000F090
S1131C90EDFBFFF7D9FB594907000200D6E7584985
S1131CA0002000F0E3FBFFF7CFFB564E02003100AB
S1131CB00400002000F0EDFD5349002000F0D6FBA5
S1131CC0FFF7C2FB04AB020031001876002000F0DD
S1131CD0E0FD4E49992C00D148E12B6806981FAECF
S1131CE020933480FFF7B4FA6B46187DFFF738F978
S1131CF0474B0BAA1B681770029301230AA9009192
S1131D0000203100019301F069FE021E03D000207F
S1131D10404900F0BEFDFFF739F94AE53E4900208D
S1131D2000F0A4FBFFF7A5FB83B21A003B4906931E
S1131D308CE73B49002000F099FB0120FFF704FCED
S1131D4037E53849002000F091FBFFF792FB83B29E
S1131D501A003549059379E78D520000A752000017
S1131D60C2520000E0520000FD5200001C5300006B
S1131D703B5300005553000080530000A053000063
S1131D80B3530000BE530000FC5300003E54000057
S1131D907F540000BF540000FF5400003C55000075
S1131DA07B550000B9550000F6550000345600007C
S1131DB071560000B0560000ED56000016570000A2
S1131DC0535700008A570000C7570000045800000A
S1131DD018580000345800000F2700001027000096
S1131DE06258000082580000B0580000CA58000031
S1131DF08CFEFF1FF9580000145900004A590000D6
S1131E006159000094590000AA590000D3590000F8
S1131E1078FEFF1FF95900001A5A0000465A0000C4
S1131E20685A0000965A0000D25A00003A006B49E2
S1131E30002000F02EFD00F034FB6949002000F082
S1131E4015FB00F02EFB6749002000F00FFB00F0AB
S1131E5028FB6549002000F009FBFFF70AFB6349F2
S1131E600500002000F002FBFFF703FB04006049BB
S1131E70002000F0FBFAFFF7FCFA5E49002000F0B6
S1131E80F5FAFFF7E1FA059B03225B4901930295FA
S1131E903B000094002000F0FCFC6B46187DFFF72B
S1131EA05FF85649002000F0E1FA34E75449002075
S1131EB000F0DCFAFFF70BFA5249002000F0D6FAE2
S1131EC06C255149002000F0D1FAFFF7BDFA04ABAC
S1131ED05B1918704D49002000F0C8FAFFF7C9FAE1
S1131EE06B461E7F04AB5B1904001B78069AAE4256
S1131EF015D10192059A464900920200002000F093
S1131F00C8FC0025A54200DB53E41FAB1A7800236C
S1131F100121FF200093FFF7CDFA0135F2E700928B
S1131F203C490200002000F0B4FC0025A54200DB7F
S1131F303FE401211FA8FFF7DFFA0135F6E7069811
S1131F40FFF786F935E4FFF7A3F932E40021022014
S1131F5000F098F82DE400210820F9E72949002031
S1131F6000F084FAFFF7E8FA23E42B49002000F09C
S1131F707DFA1EE42949002000F078FA284800F090
S1131F809AFE2849F2E72849002000F06FFA6B46D0
S1131F90187DFEF7E5FF2549002000F067FA00F000
S1131FA080FA23490500002000F060FAFFF761FA87
S1131FB086B232001F49002000F06BFC206800F05C
S1131FC07AFEE9B268394D42694132000120059B2D
S1131FD0C9B2FFF7E5F91849C8E7C046EF5A00004F
S1131FE0295B0000525B00006B5B0000AA5B0000F1
S1131FF0D65B00000E5C00003F5C0000F44A000069
S11320007C5C0000685A00009F5C0000BE5C00001D
S1132010DE5C0000305D00006E5D0000AC5D000021
S113202010270000CB5D0000D55D0000EE5D0000D0
S1132030175E00005F5E0000975E00001FB504009D
S113204001A9002002F07EF8694601A801F0B8FF5A
S1132050009B68461C1901A9009401F039FF012274
S113206001A9002002F09AF81FBD00000022034BD2
S11320701A608022024B1206DA67704700A01C58CF
S113208004E100E070B50D000A2408281CD8FEF70E
S11320904DFD051D2A3F54676C6F5C0001F0B2F9D9
S11320A00524012810D0FFF7E1FF2800FFF7C6FF41
S11320B00021080001F032F801210400002000F0A2
S11320C049FE002C22D10024200070BD01F09AF9B1
S11320D006240128F8D0FFF7C9FF2800FFF7AEFF58
S11320E000210120E6E701F08DF908240128EBD056
S11320F000F0AEFE002803D00121002000F02AFEEB
S11321000021022001F00AF80028DCD00924DBE7D2
S113211001F078F907240028D6D0FFF7A7FF28009C
S1132120FFF78CFF0021032000F0F8FF040001F00A
S113213069F901210028C4D1C1E7FFF797FF2800FE
S1132140FFF77CFF00210420EEE70021082000F0C7
S1132150E5FF041EDAD10121080000F0FBFDB3E71E
S11321600021052000F0DAFFD0E700210620F9E77E
S113217000210720F6E7000070B505000C000020E0
S1132180024900F073F9257070BDC046C95E0000B5
S113219010B50D4A88B0127805AB49BA198006A962
S11321A00A800A4A022412684A6004AA1070642051
S11321B00093029001230020019401F00FFC0028F9
S11321C000D0200008B010BD6000002074FEFF1F86
S11321D000B50D4A89B012780B0006A90A800B4A93
S11321E012684A6005AA1070FA200193084B400057
S11321F0029000930020012301F0FDFB002800D091
S1132200022009B000BDC0466000002074FEFF1F1C
S1132210680000200369C268934201D880681B18D3
S1132220013B981A7047F7B58368C46801931F1B74
S1132230436805000E001819A418974207D83A00FD
S1132240FEF7F2F9019B6868E41A2200F119FEF71F
S1132250EBF9EC60F7BD0023F7B506001700C5687D
S1132260019100933369B4689D421FD2013B5B1B0B
S1132270641BBC4200D93C009C4200D91C0073681A
S1132280220058190199FEF7CFF9009B2D191B194B
S11322900093019B3F1B1B190193B368AB4200D110
S11322A00025F560002FDDD10098FEBD1B19DDE788
S11322B0022310B50F4C104A236163610F4BA261D6
S11322C0E361C823A2640E4A2362E2640023042269
S11322D0A3626362E362A3656365E36522650949FA
S11322E0E01DFEF717FB20000749FEF713FB202330
S11322F0A37110BDD0000020E55E00004C01002059
S113230048010020EE5E0000F25E0000F0B5274BAD
S113231085B01B780E0002900192002B01D1FFF7CB
S1132320C7FF1823029A00255343204AD3185A6D35
S11323309C6D0392944219D91B6D019D1B1B9D42F8
S113234000D91D001827029B30005F43174B2A0059
S1132350DF19FB6C76191919FEF766F9019B6419EC
S11323605B1B01933B6DA34200D10024039B019F9F
S11323701B1B9F4200D91F00002F0CD01823029A68
S113238030005343094AED19D318D96C3A0009199E
S1132390FEF74AF9E419002D05D01823029A0348E0
S11323A05343C0188465280005B0F0BDD000002058
S11323B010B50B00EFF31084012181F3108819008C
S11323C0FFF7A4FF84F3108810BD0000F8B51600D1
S11323D01822451C55434243164B0F005D199B18A8
S11323E0DC6A012C10D0022C1BD0002C1FD1280039
S11323F0FFF710FF864205D8320039002800FFF7A6
S113240012FF34002000F8BD2800FFF703FF34005A
S1132410864200D90400220039002800FFF703FF98
S1132420F0E732002800FFF716FF0400EAE7002473
S1132430E8E7C046D0000020F8B50B4B04001B7839
S11324400E001700002B01D1FFF732FFEFF31085C8
S1132450012181F310883A0031002000FFF7B6FF14
S113246085F31088F8BDC046D000002070B5050083
S113247008000C00FEF756FA210002002800FFF7BE
S1132480DBFF70BD13B56B46DC1D0122210000206B
S1132490FFF78EFF012801D1207816BD01204042AC
S11324A0FBE710B5FFF7EEFF0028FBDB10BD0000D3
S11324B0F7B5164C0193237805000F001600002B86
S11324C001D1FFF7F5FE2369AB421CD9EFF310826B
S11324D0012181F31088002D0CD01823691C594365
S11324E06B43675061184E600199E318196200212B
S11324F09962596218204543089B6419E36282F388
S113250010880020FEBD01204042FBE7D0000020DF
S1132510826810B504004068531C834205D82068C3
S11325208154A360E3680133E360A26863689A425C
S113253009D121682069FFF77FFFA368984203D07F
S113254001235B42E36010BD0023A360FBE70000AE
S1132550F0B5050017000800012685B00A9C029119
S11325600093B84219D2009A0196964200D2019281
S113257001230B9A1A4003920B9A1A4202D1002C9F
S113258010D10024EB680126002B4BDB009B012BB0
S11325901FD9013B00937E43F8E73900FEF7DAFACE
S11325A00136DEE70B9B20269B0704D5009B1036E3
S11325B0002B00D0103E019BA342E3D2310028003F
S11325C0FFF7A6FFEB68013C002BDBDB002CF2D10C
S11325D0D7E731000298FEF7BDFA8742DBD90298AB
S11325E03100FEF73DFB114B0291195C2800FFF707
S11325F08FFFEB68002B05DB39003000FEF7AAFAE9
S1132600BE4211D2039B002B0CD0002C0AD0019B9C
S1132610A34207D220212800FFF77AFFEB68013C90
S1132620002BF2DA05B0F0BD0600D8E7F95E000031
S1132630F0B59FB00EAB099340230A9300230E001C
S1132640150007900B930D900C93317801360029F7
S113265007D10C9B0393002B00DD09E10C981FB0FC
S1132660F0BD252900D0B3E000270822042006E0AD
S1132670302B0DD1022300E001231F430E003378D9
S1132680711C2D2BF8D0F3D8232B10D02B2B0CD06E
S113269000240A213378721C18003038092808D81D
S11326A04C43303C16001C19F4E70743E6E7174394
S11326B0E4E7002103912E2B0ED116000A20327874
S11326C0711C1300303B092B06D8039B0E004343B7
S11326D0303BD3180393F2E7042331780A00013620
S11326E09A43682A01D13178F8E7782909D86F2903
S11326F00BD8632967D017D8252969D0582900D168
S113270095E00C9B002BA0DAA3E770390800082998
S1132710F7D8FEF715FAA500F6FFF6FF9400F6FFCA
S11327208300F6FFF6FF8C006429EAD12B681A1D9A
S11327301B682A60DA179818049301235040059304
S1132740092849DC039B059A0693934200D206921A
S1132750002C05D0049B002B01DB7B0700D5013C3A
S113276002231F4202D0039B002B05D001231F42EA
S113277002D1002C36D100240C9B0593002BC0DB26
S1132780049B002B3ADA2D215B42049309A8FFF73E
S1132790BFFE0C9B002BB4DB03233B40022B05D173
S11327A0039B002B02D1002C2CD100240C9B0593FD
S11327B0002BA6DB0A22039B04990197009409A825
S11327C0FFF7C6FE9DE72B6819681A1D2A60C9B277
S11327D009A8FFF79DFE94E70A21FEF745FA059B39
S11327E00133ACE7069BA342C6D2202109A8FFF718
S11327F08FFE0C9B013C002BBBDABDE77B07C8D5E1
S11328002B21C3E7069BA342D0D2302109A8FFF7AE
S11328107FFE0C9B013C002BC5DAC7E70A2229681E
S113282001970B1D2B60039B00940968C7E7296877
S113283001970B1D2B60039B00941022F5E72B6876
S11328401A1D2A601C6821780134002900D158E738
S113285009A8FFF75DFE0C9B0393002BF3DA50E706
S113286029680B1D2B600023019308330093E4E7D0
S11328700B9A002A03D007980EA9FFF7DDFD0C9BE5
S113288003930B9B0493049A039B944663440C9315
S1132890E4E60EB403B503AB02CB01AA0193FFF740
S11328A0C7FE02B008BC03B0184710B5002000F002
S11328B063FE10BD10B5002001F0CEFC10BD000079
S11328C0082310B5164A9178194202D091780B4327
S11328D09370882100222220124B49015A50124938
S11328E0124C08708020124940025850196811484F
S11328F001401960195910480840C0218904014356
S1132900195180210D4B1A7219767F391A7059703A
S11329100B490A700C3299791142FCD110BDC046A2
S113292000D007400070044000E00740041000009D
S113293044100000FFFFF3FFFFFFFFF000400640DC
S1132940005006401249134810B5814205D00022B8
S1132950114B9B089B009A420FD1104B104A99606F
S1132960002310491048521A9A420AD100210F4BF1
S11329700F4AD21A013A08D210BD84588C5004323E
S1132980E9E7CC5CC4540133EEE719700133F1E795
S113299000000000000000000000000000ED00E066
S11329A0086200006060000000FEFF1FA8FFFF1F18
S11329B0F002002037B50E25FF350400280000F092
S11329C0BFFD0A2000F077F9280000F0C7FD0C20B5
S11329D000F0C4FDFA23084A9B00147000210193FF
S11329E0012308000093054B01F02AFD0400280090
S11329F000F0A6FD20003EBD340200201402002099
S1132A00C023644A9B0010B51360634A1360FEF749
S1132A1059FA8023614A5B001360614A0220136003
S1132A20604A136000F08CFD642000F044F9022039
S1132A3000F094FD642000F03EF9022000F080FDD7
S1132A40642000F038F9AE20FFF7B4FFA020FFF7B0
S1132A50B1FF7220FFF7AEFFA120FFF7ABFF00200C
S1132A60FFF7A8FFA220FFF7A5FF0020FFF7A2FFB2
S1132A70A420FFF79FFFA820FFF79CFF3F20FFF74C
S1132A8099FFAD20FFF796FF8E20FFF793FFB0204C
S1132A90FFF790FF0B20FFF78DFFB120FFF78AFFB0
S1132AA03120FFF787FFB320FFF784FFF020FFF703
S1132AB081FF8A20FFF77EFF6420FFF77BFF8B20D6
S1132AC0FFF778FF7820FFF775FF8A20FFF772FF82
S1132AD06420FFF76FFFBB20FFF76CFF3A20FFF77E
S1132AE069FFBE20FFF766FF3E20FFF763FF8720E4
S1132AF0FFF760FFFF20FFF75DFF8120FFF75AFF1C
S1132B009120FFF757FF8220FFF754FFFF20FFF7C4
S1132B1051FF8320FFF74EFF7D20FFF74BFFAF20CF
S1132B20FFF748FF2620FFF745FF0120FFF742FF8C
S1132B302520FFF73FFF0020FFF73CFF0020FFF7B1
S1132B4039FF5F20FFF736FF3F20FFF733FF2220D6
S1132B50FFF730FF0020FFF72DFF0020FFF72AFFCB
S1132B605F20FFF727FF3F20FFF724FF0020FFF738
S1132B7021FFFF20FFF71EFF0020FFF71BFF0020AF
S1132B80FFF718FFFF20FFF715FF0020FFF712FFE4
S1132B90002010BD209014542490145434A01454D4
S1132BA03090145400A01454030041700020187095
S1132BB058609860704710B5437804000120FF2BDB
S1132BC008D000F051FA63780133DBB2637000F08F
S1132BD03FFA002010BD0020704770B504000D00BE
S1132BE000F042FAE1682943E16000F031FA002084
S1132BF070BD000000220A4B9A641A0040329A63A6
S1132C001A0030329A621A0020329A611A00103285
S1132C109A60044A1360044B9B60DB607047C046B3
S1132C205802002054020020A80200200022024B77
S1132C301A60186880B270470C007C5070B54378F5
S1132C4004000D00002B0BD0002500F00DFA637872
S1132C50013BDBB26370257000F0FAF9280070BD07
S1132C6002200029FBD02378002B17D0FFF7DEFFCA
S1132C706368A268834204D8C01A824206D3032040
S1132C80EDE7C01A80235B02C018F6E700F0ECF908
S1132C900023237000F0DCF90220E0E74B1CEED0A7
S1132CA000F0E2F90123237000F0D2F9FFF7BEFF30
S1132CB0A5606060E3E770B50500FFF7B7FF802605
S1132CC004007602FFF7B2FF0300844203D8031B1B
S1132CD09D42F7D270BD301BC318F9E710B5012827
S1132CE001D100F0C1F910BD10B5012801D100F0E7
S1132CF0AFF910BD10B5FFF77DFF01230020084A8E
S1132D0008491360084A094C1060086004212160D6
S1132D10074C216007490B6007490860136010BD28
S1132D203880045000008450000004500000045116
S1132D300400045104000C500000045310B5044C6A
S1132D40206021710020A2602373637310BDC0460C
S1132D50B80200200422F0B587B005AC3B4E0190C8
S1132D6002912070617033790092834226D9002247
S1132D70337B1500737301230092A3700393334FC5
S1132D803B7BAB421DD8009B002B02D0029B012B46
S1132D9048D10120FFF7A2FF0C20019B00255843D6
S1132DA03368181800F0C2F8019B012073710226E1
S1132DB0FFF79AFFA6703B7BAB421AD8009807B086
S1132DC0F0BDBA68AB009B58002B0FD01A79039959
S1132DD00A420BD020001A6899689047002805D051
S1132DE0029B7D73002B1BD0052300930135EDB2AC
S1132DF0C5E7BA68AB009B58002B0ED01A79324253
S1132E000BD020001A6899689047002805D0029BCF
S1132E107D73002B17D0062300930135EDB2CAE76A
S1132E20052300930023A370013DEDB2FF2DC5D00F
S1132E30064BAA009B68D358002BF5D020001A68D3
S1132E4099689047F0E706230093B7E7B80200209B
S1132E50014B58797047C046B802002013B50400EE
S1132E60002021780190022920D0032922D00129B1
S1132E7025D1227901AB144800F0BEFF002814D1FB
S1132E80A3795A1E9341114ADB01137063785A1EC9
S1132E9093410F4A5B001370A2780E4B1A70E278CC
S1132EA00D4B1A7062790D4B1A7016BD0100227910
S1132EB001ABE0E701A9044800F0E0FFDEE701A967
S1132EC0014800F07DFFD9E70040064018408653D2
S1132ED000408650004006500140065018401650ED
S1132EE0074A43099B009B18F822C00512051040AD
S1132EF0184380235B051843002303607047C046D2
S1132F0028800440F821084A43099B009B180905BE
S1132F10C2050A4013438022520513431F22104066
S1132F201E3A82401A60704728800440072373B514
S1132F30009300230400104D1A000121280001F021
S1132F407DF92000FFF78AFF637A280000930023AD
S1132F50217A1A0001F072F9E379084A9B0413609C
S1132F60074BA17A1D68280000F0A4FF2800E17A2D
S1132F7000F0A7FF002076BD0070044000700C59DB
S1132F80585F000010B5054800F0DAFE044B1968DC
S1132F90C9B20131FDF7DEFD10BDC0460040064058
S1132FA044801C5E10B5FFF7EDFF10BD10B5054859
S1132FB000F0C6FE044B1968C9B20131FDF7CAFD21
S1132FC010BDC046004006404480145810B5FFF7B9
S1132FD0EDFF10BD0B4B1B68DBB2022B0CD0032B97
S1132FE00DD00020834206D1074A106880221202C5
S1132FF0904200D018007047044B1868FBE7FA2091
S11330008000F8E700700C59E0020020E402002080
S113301010B5FFF7DFFF10BD10B5024B185CFFF7CA
S113302071FF10BD095F000010B57620FFF76AFF3D
S113303010BD10B57620FFF753FF10BD10B5662004
S1133040FFF760FF10BD10B56620FFF749FF10BD04
S1133050044A1368002B04D0013B1360002B00D1F9
S113306062B67047C802002072B6024A1368013380
S113307013607047C802002010B5064C064801F0E2
S11330806FFB042801D1002010BD013C002CF5D1B8
S11330900320F9E7EA03000000E0074010B50B4BFA
S11330A00B490A78002A07D0084C0A4801F058FB5B
S11330B0012806D1002003E0013B002BF1D10320BD
S11330C010BD013C002CF0D1F9E7C046EA03000032
S11330D002D0075100E00740F7B507000E001500C5
S11330E001200193002F15D0002913D0FFF7F6FD1E
S11330F0094C102200212000FDF7EAFA276026710E
S1133100002D03D0019BA560237363730120FFF797
S1133110EBFD0020FEBDC046CC020020F0B5B14C52
S11331208DB002900391237B01206373FFF7D6FDDA
S11331302379029A934206D80120FFF7D5FD02278E
S113314038000DB0F0BD029A23689200D35809AC40
S11331501D780193039B2A002372029B2370019B19
S1133160636002239A430492012A01D0052D0AD1F7
S113317001219D4801F048FA002807D10120FFF7FA
S1133180B3FD0127DCE70321072DF2D80123002733
S113319063723C000593934E337BA3422AD80120EB
S11331A0FFF7A2FD914800F0EFFD049B012B4AD1EB
S11331B00138022835D9039B012B00D00DE10627E5
S11331C00120FFF78BFD0023012609AD6B72013C42
S11331D0E4B2FF2C00D1AFE0824BA2009B68D3582D
S11331E0002BF4D01A793242F1D028001A68996879
S11331F09047ECE7B268A3009B58002B0ED01A79D5
S113320005990A420AD01A68996809A890470028C3
S113321004D0039B04277473012BC0D10134E4B29E
S1133220B9E7FFF7D3FE724B9842C4D8FFF7AAFE62
S1133230704EB042BFD8FFF7B9FEB042BBD8FFF71B
S1133240B1FEB042B7D8039B012B00D0C1E00A2DD8
S113325000D9BCE02800FDF769FC060A0D1E879A18
S11332607B822F737800002207AB1A702DE00322B3
S113327007ABFAE75C4801F073FA012808D0002193
S1133280594801F0D1F9FFF709FF071E00D057E7AD
S1133290012207ABE9E7544801F062FA042808D098
S11332A00221514801F0C0F9FFF7E6FE071E00D0E5
S11332B046E7042207ABD8E7072207AB1A80019A36
S11332C0D2789A70019A1279DA702B00083B022B9B
S11332D006D8019B06AA5B799372019B9B79D372F2
S11332E0019B5B78002B0AD0012D08D9019B022297
S11332F09978414B00294DD019690A431A613A481B
S113330007A901F0B5F9002800D00327002D45D105
S1133310FFF7C4FE071E00D012E700270120FFF7C5
S1133320DDFC029B2F4D0024AB73022309AE7372A4
S113333001932B7BA34236D80120FFF7D5FCFFE68F
S1133340082207ABFF321A80BFE72C4A07ABFAE723
S1133350022207AB1A700222FF329A80B5E70222DA
S113336007AB1A70264AF8E7022207AB1A70013A33
S11333701D489A8001F0F4F90128A6D000211A48CA
S113338001F052F9FFF78AFE071E9ED0D8E6052207
S113339007AB6AE7196991431961B0E7012DBDD103
S11333A0FFF76AFEB6E7AA68A3009B58002B0BD070
S11333B01A7901990A4207D030001A68996890472F
S11333C0002801D005276C730134E4B2B1E7032768
S11333D0B6E6002F00D13AE7F2E6002F00D0EFE680
S11333E0EDE6C046CC02002000E007400040064065
S11333F040420F0080841E0000ED00E0070300003F
S11334000102000010B5064801F0AAF903000020EB
S1133410012B03D00B30042B00D10A3810BDC04659
S113342000E00740F7B5FF2403681D4A1E0A264042
S11334301C40B3009F581B4A05009B583000019361
S1133440FFF7EAFD00222100380001F091F9019B09
S1133450A400E41884232A795B05234352001A60EC
S113346080236A795B0523431A609023AA795B055C
S1133470234312011A600C4B1C43EB791B04236099
S1133480EB79002B0AD0094B9B57002B06D01F2247
S113349013401E3A9A401300054A1360F7BDC04614
S11334A05C5F0000645F0000000018186C5F00009F
S11334B000E100E0F8B5FF2405000368114A180A8A
S11334C020401C4083009F580F4A9E58FFF7A4FDDC
S11334D038002100012201F04BF96A68210038000C
S11334E001F055F988232A7AA400A4195B05234323
S11334F092001A6098235B051C436B7A9B0123603E
S1133500F8BDC0465C5F0000645F000070B50C004D
S1133510002807D1002C0FD170BD05000835FFF736
S113352081FF280003680133F7D1F3E72500200069
S11335300C35FFF7BFFF2C0023680133F6D1EBE70E
S1133540FF22030A044913409B00595801231040E9
S113355083404B607047C0465C5F0000FF22030A53
S1133560044913409B0059580123104083408B6049
S11335707047C0465C5F0000084B8200D258942319
S113358010B502325B0513431B78002B02D000F008
S11335903FFA10BD00F092FAFBE7C0460C5F000052
S11335A0020080230C325B0513431A78002AFCD0F6
S11335B00171704770B50D00084B8000C45820009D
S11335C029001830FFF73AFB0328F8D0002801D06F
S11335D004232374207CC0B270BDC046DC020020EA
S11335E010B5104B8000C458E37C002B05D0237C1D
S11335F0052B02D0237C042B0BD10B4B185898239A
S1133600821C5B05134300221A7001F02FF9012379
S11336106374A37C002B03D020001830FFF7CBFA8F
S113362010BDC046DC0200200C5F0000F0B517009E
S1133630002289B005930EAB1B7805000393830029
S113364032481E5832481C5807AB1A80A37C880A9B
S113365004930223FF3363828B0A0193CBB21E28A7
S113366001D11A000B0A5B00D8B2019B00211E2B6A
S113367005D08F4203D1012303995B1A59B2014348
S1133680CBB202930299019807AB197001211E284D
S113369001D15A704918A3603000E1600299FFF724
S11336A07FFF28000F99FFF785FF237C002B0CD1A7
S11336B0002F0AD0059BA760E36030003978FFF73C
S11336C06FFF28000F99FFF775FF237C039A1A43B5
S11336D014D1019B1E2B01D0002F0FD000230127F2
S11336E03000A360E76001F0AFF80299300039437D
S11336F0FFF756FF28000F99FFF75CFF0023207C9B
S1133700E374049BC0B2A37409B0F0BD0C5F000065
S1133710DC020020F7B583000193184B8200D758D0
S113372005000C000126002F26D1154B3900D35873
S1133730200024220193FCF7CBFF2000390018302D
S1133740FFF732FA2800FFF779FC019801F027F817
S11337500A4BAA00D4501F220A4B5B5D134032006F
S11337609A40094B1A609C22019B52050233134371
S1133770802266743E001A703000FEBDDC02002018
S11337800C5F0000105F000000E100E0F7B50E4E92
S11337908500AB59002701930C4B0400EA589C2385
S11337A002325B0513431F70FFF74DFC084B019871
S11337B01A5D1F231A401E3B9340064A1830D367F4
S11337C0FFF709FAAF51F7BDDC0200200C5F0000DF
S11337D0105F000004E100E00A4B800070B5C5589A
S11337E04B686A690C0093420BD0074BC658FFF72D
S11337F0DDFB002301006268300000F0DFFF636836
S11338006B6170BDDC0200200C5F0000F0B587B076
S113381004920593334A0FAB1E7883009C5803919E
S1133820627C0700002A03D10320207407B0F0BD96
S1133830002E01D11E220E922B4A3800D5580023A7
S11338400399E360A360237423606374A674FFF791
S1133850C3FF90231021AA1C5B0513431970842312
S1133860E91C5B050B430221197098235B05134384
S113387002934023029A2800137000F0E5FF039B93
S1133880380019880E9B049A019301230093059B29
S1133890FFF7CCFE0D9B002B17D0237C002B11D1FE
S11338A00C9B2800A3600D9BE3600C9B1978FFF729
S11338B077FE002E03D038000E99FFF77BFE207CA4
S11338C0C0B2B3E7237C042BF9D100230126029A6A
S11338D01370EB785B09334202D0280000F0C6FF76
S11338E06674ECE7DC0200200C5F0000F0B589B0E0
S11338F0079311AB1B780692364A029383009C58B7
S11339000591627C0600002A03D10320207409B0CB
S1133910F0BD029A002A01D11E32109200272E4ACD
S11339200599D5580E9B300023600F9BA7606360F8
S1133930029BE760A37427746774FFF74DFF90231D
S1133940AA1C5B051A4310231370842304925B059D
S1133950EA1C134302221A709823AA185B051A431F
S1133960402328001370039200F06EFF059B069A13
S11339701988109B300001930097079BFFF756FEB0
S1133980237CDAB2BB4215D1049BA91C1A708C2388
S11339905B050B430F99012900D108221A702B797A
S11339A0029B002B03D030001099FFF703FE207C0C
S11339B0C0B2ACE7237C042BF9D10126039B1F7012
S11339C0EB785B09334202D0280000F04FFF6674A5
S11339D0EDE7C046DC0200200C5F00001FB50124A7
S11339E00394089C0294079C0194069C0094FFF79E
S11339F00DFF04B010BD1FB501240394089C02946C
S1133A00079C0194069C0094FFF770FF04B010BD5E
S1133A10244B70B58400E5588423EA1C5B051343EA
S1133A2002221A709023A9185B050B431B78EA78CD
S1133A30DBB292061DD5942252050A431278002A5D
S1133A4017D0194AA458012B14D1EA781A4204D089
S1133A5004332374FFF7C4FD0BE0E368013BE36028
S1133A60002BF7D0A36828005A1CA2605978FFF7EE
S1133A7097FD70BD6268013A6260002A06D08C230B
S1133A805B05012A0AD000220B4309E0FFF7A8FDD9
S1133A9023685A1C22602A791A70EAE708220B4329
S1133AA01A70F5E70C5F0000DC020020C31C8420C0
S1133AB04005184302230370704700000122F0B54B
S1133AC0904B8100CD5889B0EB1C0193EB78902684
S1133AD01B091A4005920122EB7876059B091A40CE
S1133AE002923200AB1D1A43944612780090D2B26F
S1133AF00792942252051A431278AF1CD0B2039055
S1133B009820400503431878C0B206907E480C58AC
S1133B103100394301910978C9B20491002A35D0A2
S1133B20079A002A0ED01023624628001370FFF76C
S1133B30BDFF236B002B52D06A4601211078626BC3
S1133B4098474CE0069A002A20D0402228001A7098
S1133B50FFF7ACFF23002C331B78002B03D19822F2
S1133B60520517433B70236B002B04D06A46802117
S1133B701078626B9847E37D002B04D020008021ED
S1133B801830FFF72AF80A23237028E02800FFF7EB
S1133B908DFF059B002B24D0EB1C1E431023337098
S1133BA0029B002B10D0EB785B07DA0F002B48DB6D
S1133BB0019B1A70236B002B04D06A4604211078F1
S1133BC0626B98472B790AE0082323702C342378FE
S1133BD0002B04D198235B051F43029B3B7009B063
S1133BE0F0BD029B002BDED1049B012B54D1EB785A
S1133BF0049A134230D0019B029A1A702B79230045
S1133C002C331B78002B07D1039B002B04D1982362
S1133C105B051F43039B3B70236B002B04D06A4658
S1133C2008211078626B9847A37D002B04D02000F4
S1133C3008211830FEF7D1FF00236360E360237589
S1133C40CDE71023019A1370236B002B04D06A462E
S1133C5002211078626B98476368002B50D02800CB
S1133C608022E3680C30520519780243107800284A
S1133C70FCD029710133E3606368013B63606368CE
S1133C80002BACD1E3602375236B002BA7D06A46CD
S1133C9010211078626B53E72B79A268DBB2002AFB
S1133CA02CD022691370236901332361A368013B7B
S1133CB0A360A368002B00D091E7039B002B11D1D4
S1133CC023002C331B78002B04D198235B051F435E
S1133CD0039B3B70E37D002B04D02000202118308F
S1133CE0FEF77BFF002363752361236B002B00D158
S1133CF075E76A4620211078626B21E7072343E7C2
S1133D00062341E70C5F0000DC02002084225205F8
S1133D10024312780300D0B2002A0CD08020013371
S1133D20400503431878013843425841024B40424E
S1133D301840024BC0187047808D5B0080841E00C1
S1133D4010B50D4B821D13431A780400D3B2002A18
S1133D500FD0012B07D1FFF7D9FF084B08341C43C0
S1133D602378D84010BD0020022BFBD1044B1868E7
S1133D70F8E70448F6E7C046000008110000901078
S1133D80E0020020006CDC020C4A811D0A43127818
S1133D900300D0B2012A04D002280BD000280BD192
S1133DA0704780220133520513431B78002BF7D14F
S1133DB00220F5E70320F3E70520F1E700000811EE
S1133DC002009C2318325B05134380221A700022E0
S1133DD0064B03431A70064B063018430378DAB2D5
S1133DE0002BFBD1034B10000B607047000008133D
S1133DF000000811006CDC02F8B504000D00160088
S1133E001F00FFF7C1FF012823D1002D25D08023F7
S1133E10621C5B0513431D70842302225B0523434C
S1133E201A702200104B083213437200D2B21A7077
S1133E3040220E4B0E48234306341A700443237861
S1133E40012BFCD1002D0DD10A4B334100203B60E6
S1133E50F8BD0228DBD1012DD9D139002000FFF7AC
S1133E60AFFFD4E7044BF0E7000090100000081304
S1133E700000081180841E0000127A0010B50A4C5C
S1133E80030022680120002A0CD0084A7F301A431C
S1133E9010700748063303431A78022AFCD1002025
S1133EA023680B6010BDC046E00200200000081328
S1133EB0000008119C23C9015B050343C9B21970B2
S1133EC07047942349015B050343C9B219707047D5
S1133ED070B506680C0030002049FCF73BFE1F4912
S1133EE005003000FCF7BCFE0E00E12130000901A2
S1133EF0FCF730FEE121E08009013000FCF7B0FE60
S1133F000E003C213000FCF725FE3C2120813000CE
S1133F10FCF7A6FE6E22A1720321114BFF3223800F
S1133F20238895420AD80F499B0700D10E490123E3
S1133F30CA5CAA420CD36380A58070BD01339BB2D6
S1133F4023800B40AD1A5A425A416E32FF32E7E7E2
S1133F500133AD1A0D2BEBD1EEE7C04680510100C1
S1133F60B2070000385F0000115F00000188114AA9
S1133F7003008A18002030B5812A17D85A88541EA5
S1133F800B2C13D89C88651E1E2D0FD8DD88172D89
S1133F900CD81D893B2D09D89B7A3B2B06D88B075F
S1133FA005D0054B9B5CA3424041C0B230BD034BDE
S1133FB0F8E7C0464EF8FFFF385F0000115F0000CD
S1133FC070B5134D838802885B196E25FF35554300
S1133FD044885B1995085B190E4D6600755B5B1987
S1133FE0920710D00B600A680B4BC4885343827A43
S1133FF000899B18E122120162439B183C22424330
S11340009B180B6070BD022CECD8013BEAE7C0465C
S11340104A05F5FF1E5F0000805101008023084A15
S11340201B0212689A4209D1A02310305B05184381
S11340300368002B02D10133FF3303607047C0468D
S1134040E00200200100802210B500230124520563
S1134050103111430C600B609021436049050460EA
S11340601C3001430B608821490501430B60842106
S11340704905014310430B60036010BD0200902307
S113408014325B05134300221A604260103201604F
S11340901A60704703680B6070470000104B820081
S11340A070B5D558802204000E4B92051A60280082
S11340B0FFF7C8FF2800FFF7B1FF0B4B1F261A5D5F
S11340C00123180009493240095DC0253140904060
S11340D08B40074A6D00505153511060136070BDFE
S11340E0485F00003C80845E4C5F00004D5F000030
S11340F000E100E0F7B50027114B8000C558080027
S11341000E000197FFF732FF0400B84216D001A950
S11341103000FFF755FF3800FEF77AFF01008020DA
S11341200002814206D0FCF715FD01000198FCF75E
S113413011FD019028000199FFF7A0FF2000FEBDAA
S1134140485F0000F7B50025124B8000C4580E00EC
S1134150200001A90195FFF79DFF2800FEF758FFF5
S113416005008020000285420ED00B4B2900043448
S11341701C43FCF7EFFC2768019C29004443B8B2B8
S1134180FCF7E8FC24180194310001A8FFF7A0FE15
S1134190F7BDC046485F000000007810F0B5002766
S11341A0184B800085B0C55808000E000192039793
S11341B0FFF7DCFE0400B84203D10024200005B060
S11341C0F0BD300003A9FFF7FBFE38002E68FEF7B0
S11341D01FFF010080200002814206D0FCF7BAFCD8
S11341E001000398FCF7B6FC0390039BB342E4D3AD
S11341F0AB6088231C355B051D43019B9A002A6034
S1134200DCE7C046485F0000044B8000C2588823A6
S11342101C325B051343890019607047485F000036
S1134220054B8000C258882314325B051343186879
S1134230431E9841C0B27047485F00006B46E022BD
S11342401B78D2021B041340024A09070B4380184F
S11342500360704744100000084B8200D25890233A
S113426010B503325B0513431B78002B02D000F01A
S113427013F910BD00F078F9FBE7C046505F000069
S11342809C210C4B0C4A8000C358825800200332F6
S11342904905114310B518710870942149050A4362
S11342A010701A7F824203D020331800FEF783FC7B
S11342B010BDC046E8020020505F0000F7B50C00B6
S11342C005001B4B3022002187002000FE58FCF71C
S11342D0FFF92800FEF7A8FEFEF768FE2060300014
S11342E000F0E5FA200000212030FEF75DFCF31C0D
S11342F001939023F21C5B051343102230001A70C3
S1134300032100F012FB3000002100F033FB094BC5
S1134310FC50094B5A5D1F231A401E3B9340074A29
S113432013609823019A5B05134340221A70F7BD6A
S1134330505F0000E8020020545F000000E100E04C
S1134340F8B50D4E85000D4BAF590400E85800F048
S1134350AEFA38002030FEF73EFC094B20001A5D0F
S11343601F231A401E3B9340064AD367FEF761FEA3
S11343700023AB51F8BDC046E8020020505F0000A6
S1134380545F000004E100E00A4B800070B5C65899
S1134390094B0C00C358150030001A68096800F076
S11343A08DFA2860A37930006279217900F0CFFA80
S11343B070BDC046505F0000E8020020F7B51E4AF9
S11343C083009C58050022790420002A16D11B4A38
S11343D09E58002903D0280001AAFFF7D5FF98238F
S11343E000214020F21C5B051343197018702769E3
S11343F08F4204D12800FFF743FF0020FEBD0123B4
S1134400237194235B05A16133431B780720002BA0
S1134410F4D0A368191E02D019780133A360B171D6
S11344202369013B2361A3690133A3619C235B05D9
S11344301A4380231370E0E7E8020020505F000075
S1134440F8B5134F134C85002C59ED590127069EDE
S11344502777A2602661E3606661FFF7AFFF00285B
S113446014D1200007992030FEF7E8FB0328F8D088
S113447000280BD09C23002203355B052B432271BB
S11344801A70942303205B051D432A70F8BDC046AF
S1134490505F0000E802002010B51E4B8200D35884
S11344A01979002934D01C4951585A69002A11D06D
S11344B09C2252050A431278002A0BD08A79DC68C0
S11344C0D2B2002C03D02270DA680132DA605A6961
S11344D0013A5A611A69002A12D0942252050A43F9
S11344E01278002A0CD09A68141E02D01478013273
S11344F09A608C711A69013A1A619A6901329A6157
S11345001A69002A04D15B69002B01D1FFF7B8FEB8
S113451010BDC046E8020020505F0000104A800031
S1134520815800220F4B10B5C3580331581CC27771
S11345309C2040050843DA621A701A835A629A6210
S11345401A6302709420400501430A701A0038323D
S11345501278002A03D00121181DFEF73EFB10BD7E
S1134560505F0000E802002070B5254B8200D3584C
S1134570591CC97F002942D022495258D96A0029BE
S113458017DB9421490511430978002911D0D96911
S1134590CCB2596A002905D0DD6A002D02DD0C7801
S11345A0013159629471D96A0139D962596B013167
S11345B05963D96A002905DA9421D41C4905214399
S11345C000240C70196B002911DD9C21490511434D
S11345D0097800290BD09279996AD2B2002903D0C4
S11345E00A709A6A01329A621A6B013A1A63DA6A99
S11345F0002A04DC1B6B002B01DCFFF78FFF70BD6E
S1134600E8020020505F0000012903D0032909D0EB
S11346100020704794235B0518430078431E98419B
S1134620C0B2F6E78423F6E7431C03484901184364
S1134630C9B201707047C04600008812831C9420E0
S1134640490140051843C9B201707047831C0348EF
S113465089011843C9B201707047C04600000813AD
S1134660831C8C20C90040051843C9B201707047EF
S1134670F7B50400364EE31C1E43337808780D006A
S1134680DBB2072860D8FCF751FA04192B0E192B5A
S11346902B45304B01341C43002323703378012B0A
S11346A0FCD10020FEBD012BFCD12A4B01341C435C
S11346B0402323703378042BFCD1F2E70021012836
S11346C001D004200231337898423FD12000FFF713
S11346D0ABFF0421204A13698B43136130BFE0E729
S11346E00227B84207D100270B79BB4203D0200030
S11346F04979FFF7ABFF194B01341C43277033781A
S1134700154ADBB20193019B013301930423116920
S11347100B43E2E70421114B621C1A4311706A78BF
S1134720A11C0B431A70002A06D1AB78002B03D0CE
S11347302000E978FFF782FFAB79002BDFD020005F
S1134740E979FFF78DFFDAE70120ABE70320A9E75A
S1134750000030100000881200ED00E0000010108E
S1134760C31C024818430078C0B2704700003010E0
S1134770012314308B40012A04D1802212051043F6
S1134780036070478022D204DB431043F8E701231F
S11347908B40002A01D0436070478360FCE700230C
S11347A0C222037043708370C37043718371C371F9
S11347B0037242728372C37270470000F0B5002422
S11347C087B00293FA230126270025009B00534358
S11347D003900491009301947642AB000593194B26
S11347E0AA009B1859880498A140FCF7B3F9009BD0
S11347F0009AC31A824200D9131AB3421FD2114A33
S1134800A900525C27000192002B02D00135322D01
S113481013D10134032C01D0002B0DD1029A002AAC
S113482000D013603F220199BB0111400B43039A4E
S1134830DBB2537007B0F0BD00251E00CDE7330096
S1134840E4E7C0466E5F0000942302305B05034337
S11348501B78002B05D088235B05184304230370C1
S1134860704780231B0518433023F8E7942210B5C2
S11348705205841C224311780300CAB20220012984
S11348800DD18021C90421438024CD300870E40077
S113489003331978490908001040114200D110BDB2
S11348A0013C002C01D0C046F3E70920F7E70423BC
S11348B0C37000238370437003717047F0B5130B0A
S11348C089B00126039308230124764202939B199D
S11348D0079004910592019302270025631E069315
S11348E0210005987943FCF735F9049B834207D3EB
S11348F01B1AB34204D21E00069B03900295019337
S113490001357F00092D01D0002EE9D1082C02D0F9
S11349100134002EE0D1019B029A1B01039813433A
S1134920079ADBB2537009B0F0BD842310B502249A
S1134930C21C5B0513434A0022401A7090230019DD
S11349405B0518431023C9001940017010BD10B550
S11349508C2403306405C9000443C9B22170882142
S1134960920049050143D2B20A70802252051043D5
S1134970037010BD8023012202305B0503430A400B
S11349801A708C235B0518430823890019400170B1
S11349907047000004FEFF1F1B5B306D1B5B343B44
S11349A034336D1B5B313B33376D0D53616E69746A
S11349B07920636865636B206661696C6564211B9B
S11349C05B306D0A001B5B306D1B5B343B34316D17
S11349D01B5B313B33376D0D496E76616C69642026
S11349E0737570706C7920766F6C74616765205B89
S11349F025645D206D56211B5B306D0A000D256416
S1134A000A000D2D2D2D2D0A000D0A0925642F25D0
S1134A1064207375636365737320726174652E0A11
S1134A20000D0925642062616420636F6D6D616E01
S1134A3064732E0A0A004D6561737572656D656E47
S1134A4074206E756D6265722C205254432D3E5451
S1134A5053522C205254432D3E5450522C00205279
S1134A6054432D3E5453522C205254432D3E545003
S1134A70522C202320436F6E666967204572726F43
S1134A8072730025752C2025642C2025642C0020AD
S1134A9025642C2025642C2025640A000D0A094D68
S1134AA04D41383435315120526561642041626F83
S1134AB0727465642E204465766963652044697365
S1134AC061626C6564203A28000D0A0A424D45363D
S1134AD0383020526561642041626F727465642EBF
S1134AE0204465766963652044697361626C65641A
S1134AF0203A28000D0A09424D5830353561636368
S1134B00656C20526561642041626F727465642E25
S1134B10204465766963652044697361626C6564E9
S1134B20203A2820000D0A09424D5830353567795E
S1134B30726F20526561642041626F727465642EE5
S1134B40204465766963652044697361626C6564B9
S1134B50203A2820000D0A0920424D583035356D81
S1134B60616720526561642041626F727465642ECE
S1134B70204465766963652044697361626C656489
S1134B80203A2820000D0A094D41473331313020A5
S1134B90526561642041626F727465642E204465BD
S1134BA0766963652044697361626C6564203A28A0
S1134BB020000D0A094C33474432304820526561C5
S1134BC0642041626F727465642E20446576696363
S1134BD0652044697361626C6564203A2820000D85
S1134BE00A094C50533235482052656164204162B1
S1134BF06F727465642E2044657669636520446928
S1134C007361626C6564203A2820000D0A095443DC
S1134C1053333437323520526561642041626F72F8
S1134C207465642E20446576696365204469736104
S1134C30626C6564203A2820000D0A095349343710
S1134C40303520526561642041626F727465642E50
S1134C50204465766963652044697361626C6564A8
S1134C60203A2820000D0A094844433130303020CE
S1134C70526561642041626F727465642E204465DC
S1134C80766963652044697361626C6564203A28BF
S1134C9020000D0A095349373032312052656164CE
S1134CA02041626F727465642E2044657669636581
S1134CB02044697361626C6564203A2820000D0AFF
S1134CC00943435338313120526561642041626F96
S1134CD0727465642E204465766963652044697343
S1134CE061626C6564203A2820000D0A09414D4731
S1134CF03838333420526561642041626F727465C0
S1134D00642E204465766963652044697361626C2E
S1134D106564203A2820000D0A094153373236329F
S1134D2020526561642041626F727465642E204470
S1134D3065766963652044697361626C6564203AD1
S1134D402820000D0A094153373236332052656159
S1134D50642041626F727465642E204465766963D1
S1134D60652044697361626C6564203A2820000DF3
S1134D7009496E76616C6964207761727053656E5F
S1134D80736F72446576696365205B25645D20708A
S1134D90617373656420746F207265706561745209
S1134DA06567697374657252656164466F724465C0
S1134DB076696365416E64416464726573732E0A37
S1134DC0000D0A094144584C33363220526561645F
S1134DD02041626F727465642E2044657669636550
S1134DE02044697361626C6564203A28000D09509F
S1134DF06F776572757020636F6D6D616E64206688
S1134E0061696C65642E20424D58303535206469E3
S1134E107361626C6564200A000D09506F776572D6
S1134E20646F776E20636F6D6D616E642061626183
S1134E306E646F6E65642E20424D583035352064A3
S1134E40697361626C65640A000D09506F7765725D
S1134E50646F776E20636F6D6D616E642061626153
S1134E606E646F6E65642E204C33474432304820A4
S1134E7064697361626C65640A000D09506F77653B
S1134E8072646F776E20636F6D6D616E6420616212
S1134E90616E646F6E65642E20544353333437322D
S1134EA0352064697361626C65640A000A0A0A0D3C
S1134EB0426F6F74696E6720576172702C20696E3F
S1134EC020332E2E2E2000322E2E2E2000312E2E78
S1134ED02E0A0D000D0A0A0A0A5B202A090909098B
S1134EE05709610972097009287265762E206229B2
S1134EF00909092A205D0A000D5B20200909090916
S1134F0020202020202043616D627269646765203F
S1134F102F2050687973636F6D706C61622020205C
S1134F200909090920205D0A0A000D0953757070EA
S1134F306C793D25646D562C0944656661756C7405
S1134F4020546172676574205265616420526567FC
S1134F5069737465723D3078253032780A000D0922
S1134F604932433D25646B622F732C095350493DEC
S1134F7025646B622F732C09554152543D25646B93
S1134F80622F732C094932432050756C6C2D557077
S1134F903D25640A0A000D0953494D2D3E534347EC
S1134FA043363D30782530327809095254432D3E3A
S1134FB053523D30782530327809095254432D3EFE
S1134FC05453523D3078253032780A000D094D4350
S1134FD0475F43313D3078253032780909094D4324
S1134FE0475F43323D30782530327809094D4347D5
S1134FF05F533D3078253032780A000D094D434720
S11350005F53433D3078253032780909094D4347D1
S11350105F4D433D30782530327809094F53435F63
S113502043523D3078253032780A000D09534D4300
S11350305F504D50524F543D307825303278090935
S113504009534D435F504D4354524C3D3078253005
S1135050327809095343422D3E5343523D3078255B
S11350603032780A000D09504D435F52454753438F
S11350703D30782530327809090953494D5F53434F
S11350804743343D307825303278095254432D3E1D
S11350905450523D3078253032780A0A000D0925E3
S11350A0647320696E205254432048616E646C65B9
S11350B07220746F2D646174652C09256420506D11
S11350C06772204572726F72730A000D53656C65C6
S11350D063743A0A000D2D202761273A2073657402
S11350E02064656661756C742073656E736F722ECF
S11350F00A000D2D202762273A2073657420493257
S113510043206261756420726174652E0A000D2D5E
S1135110202763273A207365742053504920626125
S1135120756420726174652E0A000D2D2027642792
S11351303A2073657420554152542062617564208D
S1135140726174652E0A000D2D202765273A20739D
S113515065742064656661756C7420726567697333
S113516074657220616464726573732E0A000D2D78
S1135170202766273A2077726974652062797465FE
S113518020746F2073656E736F722E0A000D2D20CC
S11351902767273A207365742064656661756C74AB
S11351A0205353535550504C592E0A000D2D20278F
S11351B068273A20706F776572646F776E20636F2B
S11351C06D6D616E6420746F20616C6C2073656E0C
S11351D0736F72732E0A000D2D202769273A2073EE
S11351E065742070756C6C2D757020656E61626CD1
S11351F0652076616C75652E0A000D2D20276A27BF
S11352003A2072657065617420726561642072650C
S11352106720307825303278206F6E2073656E7386
S11352206F72202325642E0A000D2D20276B273A48
S113523020736C65657020756E74696C207265737B
S113524065742E0A000D2D20276C273A2073656E95
S11352506420726570656174656420627974652088
S11352606F6E204932432E0A000D2D20276D273AF8
S11352702073656E64207265706561746564206274
S1135280797465206F6E205350492E0A000D2D202D
S1135290276E273A20656E61626C6520535353551F
S11352A050504C592E0A000D2D20276F273A2064A8
S11352B0697361626C65205353535550504C592E99
S11352C00A000D2D202770273A20737769746368CC
S11352D020746F20564C5052206D6F64652E0A0066
S11352E00D2D202772273A20737769746368207420
S11352F06F2052554E206D6F64652E0A000D2D20CF
S11353002773273A20706F77657220757020616C5F
S11353106C2073656E736F72732E0A000D2D202737
S113532074273A2064756D702070726F63657373AF
S11353306F722073746174652E0A000D2D20277519
S1135340273A20736574204932432061646472658E
S113535073732E0A000D2D202778273A2064697371
S113536061626C652053574420616E6420737069D8
S11353706E20666F7220313020736563732E0A00CD
S11353800D2D20277A273A2064756D7020616C6C8E
S11353902073656E736F727320646174612E0A00EA
S11353A00D456E7465722073656C656374696F6E08
S11353B03E20000D0953656C6563743A0A000D09BB
S11353C02D20273127204144584C3336320909090E
S11353D028307830302D2D30783244293A20312E3F
S11353E03656202D2D20332E35562028636F6D70B0
S11353F0696C6564206F757429200A000D092D20DD
S113540027322720424D58303535616363656C205F
S1135410090928307830302D2D30783346293A2048
S1135420322E3456202D2D20332E36562028636FED
S11354306D70696C6564206F757429200A000D090C
S11354402D2027332720424D583035356779726F28
S113545009090928307830302D2D30783346293A1F
S113546020322E3456202D2D20332E3656202863FC
S11354706F6D70696C6564206F757429200A000D66
S1135480092D2027342720424D583035356D61676A
S113549009090928307834302D2D30783532293AED
S11354A020322E3456202D2D20332E3656202863BC
S11354B06F6D70696C6564206F757429200A000D26
S11354C0092D20273527204D4D41383435315109D8
S11354D0090928307830302D2D30783331293A209D
S11354E0312E393556202D2D20332E365620286363
S11354F06F6D70696C6564206F757429200A000DE6
S1135500092D20273627204C5053323548090909E4
S113551028307830382D2D30783234293A20312E05
S11355203756202D2D20332E36562028636F6D706C
S1135530696C6564206F757429200A000D092D209B
S1135540273727204D4147333131300909092830A5
S11355507830302D2D30783131293A20312E3935BB
S113556056202D2D20332E36562028636F6D7069FA
S11355706C6564206F757429200A000D092D20279D
S1135580382720484443313030300909092830781D
S113559030302D2D30783146293A20332E305620A4
S11355A02D2D20352E30562028636F6D70696C6563
S11355B064206F757429200A000D092D20273927CE
S11355C02053493730323109090928307830302DD9
S11355D02D30783046293A20312E3956202D2D2071
S11355E0332E36562028636F6D70696C6564206FA6
S11355F0757429200A000D092D20276127204C33BA
S1135600474432304809090928307830462D2D3076
S1135610783339293A20322E3256202D2D20332E3C
S113562036562028636F6D70696C6564206F7574DD
S113563029200A000D092D2027622720424D4536D6
S1135640383009090928307841412D2D3078463801
S1135650293A20312E3656202D2D20332E36562031
S113566028636F6D70696C6564206F757429200AF6
S1135670000D092D20276427205443533334373237
S11356803509090928307830302D2D3078314429F6
S11356903A20322E3756202D2D20332E33562028F3
S11356A0636F6D70696C6564206F757429200A00DE
S11356B00D092D2027652720534934373035090932
S11356C009286E2F61293A20202020202020203212
S11356D02E3756202D2D20352E35562028636F6DFC
S11356E070696C6564206F757429200A000D092D9A
S11356F0202766272050414E3133323609090928C4
S11357006E2F61292028636F6D70696C6564206F4A
S1135710757429200A000D092D202767272043438B
S11357205338313109090928307830302D2D30783B
S11357304646293A20312E3856202D2D20332E3638
S1135740562028636F6D70696C6564206F757429C9
S1135750200A000D092D2027682720414D4738389D
S1135760333409090928307830302D2D3F293A2067
S11357703F56202D2D203F562028636F6D70696C95
S11357806564206F757429200A000D092D20276A8D
S1135790272041533732363209090928307830300E
S11357A02D2D30783242293A20322E3756202D2D95
S11357B020332E36562028636F6D70696C65642023
S11357C06F757429200A000D092D20276B272041AD
S11357D0533732363309090928307830302D2D30CB
S11357E0783242293A20322E3756202D2D20332E5E
S11357F036562028636F6D70696C6564206F75740C
S113580029200A000D09456E7465722073656C6564
S11358106374696F6E3E20000D09496E76616C6990
S1135820642073656C656374696F6E202725632734
S113583020210A000D0A095365742049324320626D
S1135840617564207261746520696E206B62707387
S11358502028652E672E2C20273030303127293E12
S113586020000D0A09493243206261756420726187
S113587074652073657420746F202564206B622F17
S113588073000D0A095365742053504920626175F1
S113589064207261746520696E206B6270732028C5
S11358A0652E672E2C20273030303127293E2000EA
S11358B00D0A095350492062617564207261746550
S11358C03A202564206B622F73000D0A0953657416
S11358D020554152542062617564207261746520C0
S11358E0696E206B6270732028652E672E2C20272A
S11358F03030303127293E20000D0A0955415254D9
S1135900206261756420726174653A202564206B9D
S1135910622F73000D0A09456E74657220322D6E74
S11359207962626C65207265676973746572206858
S1135930657820616464726573732028652E672E10
S11359402C2027336527293E20000D0A09456E7453
S113595065726564205B3078253032785D2E0A0AE2
S1135960000D0A09456E7465722049324320616452
S113597064722E2028652E672E2C20273066272956
S1135980206F72202739392720666F7220535049BF
S1135990203E20000D0A09456E7465726564205B23
S11359A03078253032785D2E0A000D0A09456E7470
S11359B0657220686578206279746520746F20733D
S11359C0656E642028652E672E2C202730662729D3
S11359D03E20000D0A0953504920777269746520EE
S11359E06661696C65642E204144584C333632201C
S11359F044697361626C6564000D0A09493243208D
S1135A007772697465206661696C65642C206572BF
S1135A10726F722025642E0A0A000D0A094F7665FA
S1135A207272696465205353535550504C59206920
S1135A306E206D562028652E672E2C202731383095
S1135A403027293E20000D0A094F76657272696479
S1135A5065205353535550504C592073657420742A
S1135A606F202564206D56000D0A094E4F54453AA7
S1135A7020466972737420706F7765722073656E47
S1135A80736F727320616E6420656E61626C652051
S1135A904932430A0A000D0A0944656661756C744B
S1135AA02070756C6C757020656E61626C65207613
S1135AB0616C756520696E206B696C6F4F686D73DE
S1135AC02028652E672E2C20273030303027293EA1
S1135AD020000D0A0949326350756C6C757056616B
S1135AE06C75652073657420746F2025640A000D3D
S1135AF00A094175746F2D696E6372656D656E7404
S1135B002066726F6D2062617365206164647265E2
S1135B107373203078253032783F205B273027207C
S1135B207C202731275D3E20000D0A094368756EED
S1135B306B207265616473207065722061646472A5
S1135B406573732028652E672E2C20273127293E64
S1135B5020000D0A094368617474793F205B273083
S1135B6027207C202731275D3E20000D0A09496E3D
S1135B707465722D6F7065726174696F6E207370D5
S1135B80696E2064656C617920696E206D696C6C46
S1135B90697365636F6E64732028652E672E2C20ED
S1135BA0273030303027293E20000D0A0952657015
S1135BB065746974696F6E732070657220616464C2
S1135BC0726573732028652E672E2C2027303030A1
S1135BD03027293E20000D0A094D6178696D756DE5
S1135BE020766F6C7461676520666F7220616461F2
S1135BF0707469766520737570706C792028652ED1
S1135C00672E2C20273030303027293E20000D0A03
S1135C10095265666572656E6365206279746520F4
S1135C20666F7220636F6D70617269736F6E73203B
S1135C3028652E672E2C2027336527293E20000D4A
S1135C400A09526570656174696E6720646576251A
S1135C50642040203078253032782C2072657073AF
S1135C603D25642C2070756C6C3D25642C20646586
S1135C706C61793D25646D733A0A0A000D0A095373
S1135C806C656570696E6720756E74696C207379D4
S1135C907374656D2072657365742E2E2E0A000D63
S1135CA00A094279746520746F2073656E64202834
S1135CB0652E672E2C2027463027293E20000D0A0A
S1135CC00952657065746974696F6E732028652E56
S1135CD0672E2C20273030303027293E20000D0A33
S1135CE00953656E64696E6720256420726570656A
S1135CF0746974696F6E73206F66205B3078253029
S1135D0032785D206F6E204932432C206932635013
S1135D10756C6C7570456E61626C653D25642C20F4
S1135D205353535550504C593D25646D560A0A003F
S1135D300D0A0953656E64696E67202564207265D7
S1135D407065746974696F6E73206F66205B307858
S1135D50253032785D206F6E205350492C205353E8
S1135D60535550504C593D25646D560A0A000D0A8E
S1135D700943616E6E6F7420736574204932432049
S1135D80616464726573733A204669727374207334
S1135D906574207468652064656661756C74204957
S1135DA03243206465766963652E0A000D0A09533F
S1135DB070696E6E696E6720666F72203130207371
S1135DC065636F6E64732E2E2E0A000D09446F6E88
S1135DD0652E0A0A000D0A09456E61626C696E67D8
S1135DE0204932432070696E732E2E2E0A000D0A4C
S1135DF009486578206F7220636F6E7665727465EA
S1135E0064206D6F64653F2028276827206F722007
S1135E10276327293E20000D0A09536574207468FE
S1135E20652074696D652064656C617920626574B0
S1135E307765656E20656163682072756E20696E92
S1135E40206D696C6C697365636F6E64732028657B
S1135E502E672E2C20273132333427293E20000D83
S1135E600A0944656C6179206265747765656E2002
S1135E70726561642062617463686573207365741C
S1135E8020746F202564206D696C6C697365636F81
S1135E906E64732E0A0A000D095061796C6F616497
S1135EA073206D616B6520726F636B657473206D15
S1135EB06F7265207468616E206A757374206669F8
S1135EC07265776F726B732E000D696E6974494E3B
S1135ED0413231392066756E6374696F6E20737454
S1135EE06172740A005465726D696E616C0052547B
S1135EF05400534547474552003031323334353628
S1135F00373839414243444546898A000060064097
S1135F1008001F1D1F1E1F1E1F1F1E1F1E1F000007
S1135F2000001F003B005A0078009700B500D40021
S1135F30F300110130014E01001F1C1F1E1F1E1F04
S1135F401F1E1F1E1F00000000D003401415000078
S1135F50006007400A0000000050064000F00F40B7
S1135F6040F00F400090044000A004401E1F0000B9
S1135F701400010016000200180003001A000400B7
S1135F801C0005001E0009002000060022000A0073
S1135F902400070028000C002C0010003000110021
S1135FA03800120040000F004400130048001400A1
S1135FB050001500580019006000160068001A000F
S1135FC07000170080001C0090001D00A0001E003F
S1135FD0C0002200E0001F00F000230000012400A4
S1135FE0200125004001260080012A00C00127006D
S1135FF0E0012B0000022C0040022D0080022E0044
S11360000003320080032F00C00333000004340077
S1136010800435000005360000063A00000737000A
